:0A0C38000001020203030404050595
:1005AA00E4F513F512F511F510F51BF51AF519F521
:1005BA0018C203C200C202C2011208B87E017F003B
:1005CA008E238F24752B01752C1275210175221C1F
:1005DA00752901752A3C752D01752E5C90E680E01F
:1005EA0030E70E852125852226852927852A288018
:1005FA000C852925852A26852127852228EE54E07F
:10060A0070030207257514007515807E017F008E20
:10061A00168F17C374EC9FFF74019ECF2402CF3448
:10062A0000FEE48F0F8E0EF50DF50CF50BF50AF5AD
:10063A0009F508AF0FAE0EAD0DAC0CAB0BAA0AA9AB
:10064A0009A808C3120C27502AE515250BF582E5DF
:10065A0014350AF58374CDF0E4FAF9F8E50B2401B0
:10066A00F50BEA350AF50AE93509F509E83508F519
:10067A000880C0E4F50BF50AF509F508AF0FAE0ED0
:10068A00AD0DAC0CAB0BAA0AA909A808C3120C271A
:10069A005037E517250BF582E516350AF583E0FF95
:1006AA00E515250BF582E514350AF583EFF0E4FA32
:1006BA00F9F8E50B2401F50BEA350AF50AE93509DB
:1006CA00F509E83508F50880B385142385152474DF
:1006DA00002480FF740134FFFEC3E52C9FF52CE54E
:1006EA002B9EF52BC3E5269FF526E5259EF525C30A
:1006FA00E5289FF528E5279EF527C3E5229FF522E1
:10070A00E5219EF521C3E52A9FF52AE5299EF529CB
:10071A00C3E52E9FF52EE52D9EF52DD2E843D82070
:10072A0090E668E04409F090E65CE0443DF0D2AF20
:10073A0090E680E020E105D205120B1390E680E0F6
:10074A0054F7F0538EF8C203300105120300C201B8
:10075A00300329120C4E5024C203120B6E200016CD
:10076A0090E682E030E704E020E1EF90E682E030B4
:10077A00E604E020E0E4120B42120C50120C5C80FA
:01078A00C7A7
:01078B00224B
:1003000090E6B9E070030203DC1470030204882451
:10031000FE700302052424FB70030203D61470034D
:100320000203D01470030203C41470030203CA242E
:10033000056003020596120C5240030205A290E6E6
:10034000BBE024FE602C14604724FD60161460316D
:1003500024067066E52390E6B3F0E52490E6B4F059
:100360000205A2E52B90E6B3F0E52C90E6B4F0028E
:1003700005A2E52590E6B3F0E52690E6B4F0020587
:10038000A2E52790E6B3F0E52890E6B4F00205A2D6
:1003900090E6BAE0FF1207D5AA06A9077B01EA4951
:1003A0004B600DEE90E6B3F0EF90E6B4F00205A2DC
:1003B00090E6A0E04401F00205A290E6A0E044012E
:1003C000F00205A2120C150205A2120C420205A2AF
:1003D00012078C0205A2120C030205A2120C544053
:1003E000030205A290E6B8E0247F602B14603C2451
:1003F00002600302047EA200E433FF25E0FFA202B4
:10040000E4334F90E740F0E4A3F090E68AF090E602
:100410008B7402F00205A2E490E740F0A3F090E6AE
:100420008AF090E68B7402F00205A290E6BCE0D35D
:1004300094807480948040067E007F0180047E005A
:100440007F0090E6BCE0547EFDEEEF4D2438F5824F
:10045000740C3EF583E493FF3395E0FEEF24A1FF97
:10046000EE34E68F82F583E0540190E740F0E4A398
:10047000F090E68AF090E68B7402F00205A290E616
:10048000A0E04401F00205A2120C5640030205A2AE
:1004900090E6B8E024FE601E240260030205A290EC
:1004A000E6BAE064017005C2000205A290E6A0E091
:1004B0004401F00205A290E6BAE0705C90E6BCE070
:1004C000D394807480948040067E007F0180047EF7
:1004D000007F0090E6BCE0547EFDEEEF4D2438F541
:1004E00082740C3EF583E493FF3395E0FEEF24A184
:1004F000FFEE34E68F82F583E054FEF090E6BCE038
:100500005480FF131313541FFFE0540F2F90E68302
:10051000F0E04420F00205A290E6A0E04401F002E1
:1005200005A2807E120C58507990E6B8E024FE6057
:10053000212402706D90E6BAE064017004D200805C
:100540006190E6BAE06402605990E6A0E04401F0F0
:10055000805090E6BCE0D394807480948040067E06
:10056000007F0180047E007F0090E6BCE0547EFDA9
:10057000EEEF4D2438F582740C3EF583E493FF339F
:1005800095E0FEEF24A1FFEE34E68F82F583E04490
:1005900001F0800E800C120C5A500790E6A0E04447
:0905A00001F090E6A0E04480F0B7
:0105A900222F
:03003300020C4A72
:040C4A0053D8EF325A
:100100001201000200000040B404F10000000102EE
:1001100000010A0600020000004001000902200060
:10012000010100A0320904000002FF0000000705E1
:1001300002020002000705860200020009022000F8
:10014000010100A0320904000002FF0000000705C1
:10015000040240000007058802400000040309046F
:100160001003430079007000720065007300730093
:100170007C0345005A002D0055005300420020002A
:100180004600580032002000470050004900460059
:10019000200074006F0020004500780074002000EB
:1001A0004600490046004F002000450078006100ED
:1001B0006D0070006C006500200075007300690020
:1001C0006E0067002000530069006E0067006C003D
:1001D000650020005400720061006E007300610031
:0E01E0006300740069006F006E007300000081
:100BEF00421A030000411A0200C104411A000041D9
:030BFF001A0100D8
:1008B80090E6007412F090E6027481F00000009057
:1008C800E603741EF000000090E670E04480F0003B
:1008D800000090E60174E3F000000090E61274A0B6
:1008E800F000000090E61474E0F000000090E613B9
:1008F8007402F000000090E615F00000000000000F
:1009080090E6047480F00000007402F000000074A7
:1009180004F00000007406F00000007408F0000005
:1009280000E4F000000090E618F00000007411F0F8
:0D09380000000090E61A740DF0000000228F
:010C5C002275
:020C4E00D322AF
:020C5000D322AD
:020C5200D322AB
:10078C0090E680E030E71E90E6247402F000000052
:10079C0090E626F0000000E490E625F000000090C2
:1007AC00E627F0801CE490E624F000000090E6269A
:1007BC00F000000090E6257440F000000090E62761
:0907CC00F090E6BAE0F51FD3221B
:100C030090E740E51FF0E490E68AF090E68B04F06D
:020C1300D322EA
:080C420090E6BAE0F51ED32292
:100C150090E740E51EF0E490E68AF090E68B04F05C
:020C2500D322D8
:020C5400D322A9
:020C5600D322A7
:020C5800D322A5
:020C5A00D322A3
:100B9300C0E0C083C082D2015391EF90E65D74013F
:080BA300F0D082D083D0E032D3
:100BC300C0E0C083C0825391EF90E65D7404F0D01F
:060BD30082D083D0E03265
:100BD900C0E0C083C0825391EF90E65D7402F0D00B
:060BE90082D083D0E0324F
:100AA500C0E0C083C08290E680E030E70E85212556
:100AB500852226852927852A28800C852925852AAA
:100AC500268521278522285391EF90E65D7410F045
:070AD500D082D083D0E03293
:100BAB00C0E0C083C082D2035391EF90E65D74081E
:080BBB00F0D082D083D0E032BB
:100ADC00C0E0C083C08290E680E030E70E8521251F
:100AEC00852226852927852A28800C852925852A73
:100AFC00268521278522285391EF90E65D7420F0FE
:070B0C00D082D083D0E0325B
:010C5D003264
:010C5E003263
:010C5F003262
:010C60003261
:010C61003260
:010C6200325F
:010C6300325E
:010C6400325D
:010C6500325C
:010C6600325B
:010C6700325A
:010C68003259
:010C69003258
:010C6A003257
:010C6B003256
:010C6C003255
:010C6D003254
:010C6E003253
:010C6F003252
:010C70003251
:010C71003250
:010C7200324F
:010C7300324E
:010C7400324D
:010C7500324C
:010C7600324B
:010C7700324A
:010C78003249
:010C79003248
:010C7A003247
:010C7B003246
:010C7C003245
:010C7D003244
:010C7E003243
:010C7F003242
:010C80003241
:1009D100AD07ED30E00D908100E0901A00F0A3E04A
:1009E10054FEF0ED30E10D909100E0901A00F0A37B
:1009F100E054FDF0ED30E20D90A100E0901A00F01E
:100A0100A3E054FBF0ED30E30D90B100E0901A004B
:070A1100F0A3E054F7F0220E
:100A1800AD07ED30E00D908000E0901A00F0A3E003
:100A28004401F0ED30E10D909000E0901A00F0A341
:100A3800E04402F0ED30E20D90A000E0901A00F0E2
:100A4800A3E04404F0ED30E30D90B000E0901A000C
:070A5800F0A3E04408F022C6
:100B420090E682E030E004E020E60B90E682E030BE
:100B5200E119E030E71590E680E04401F07F147E71
:0C0B620000120A5F90E680E054FEF022D2
:100B130030050990E680E0440AF0800790E680E023
:100B23004408F07FDC7E05120A5F90E65D74FFF0F7
:0F0B330090E65FF05391EF90E680E054F7F022E8
:0207D500A90772
:1007D700AE2DAF2E8F828E83A3E064037017AD0119
:1007E70019ED7001228F828E83E07C002FFDEC3E95
:0807F700FEAF0580DFE4FEFF08
:0107FF0022D7
:100B6E0090E682E044C0F090E681F04387010000F9
:040B7E000000002251
:100A5F008E1C8F1D90E600E054187012E51D2401C6
:100A6F00FFE4351CC313F51CEF13F51D801590E63D
:100A7F0000E05418FFBF100BE51D25E0F51DE51C28
:100A8F0033F51CE51D151DAE1C7002151C4E6005BF
:060A9F00120B8280EE2222
:100B82007400F58690FDA57C05A3E582458370F986
:010B92002240
:03004300020800B0
:03005300020800A0
:10080000020B9300020BD900020BC300020BAB00DA
:10081000020AA500020ADC00020C5D00020C5E0068
:10082000020C5F00020C6000020C6100020C62000E
:10083000020C6300020C6400020C6500020C6600EE
:10084000020C6700020C5E00020C6800020C6900DA
:10085000020C6A00020C6B00020C6C00020C6D00B2
:10086000020C6E00020C5E00020C5E00020C5E00C8
:10087000020C6F00020C7000020C7100020C72007E
:10088000020C7300020C7400020C7500020C76005E
:10089000020C7700020C7800020C7900020C7A003E
:1008A000020C7B00020C7C00020C7D00020C7E001E
:0808B000020C7F00020C800025
:03000000020945AD
:0C094500787FE4F6D8FD75812E02098C45
:100C2700EB9FF5F0EA9E42F0E99D42F0E89C45F023
:010C3700229A
:100951000205AAE493A3F8E493A34003F68001F20D
:1009610008DFF48029E493A3F85407240CC8C333A7
:10097100C4540F4420C8834004F456800146F6DF76
:10098100E4800B0102040810204080900BEFE47E0C
:10099100019360BCA3FF543F30E509541FFEE4936B
:1009A100A360010ECF54C025E060A840B8E493A332
:1009B100FAE493A3F8E493A3C8C582C8CAC583CA5D
:1009C100F0A3C8C582C8CAC583CADFE9DEE780BE15
:010C020000F1
:00000001FF
