:0A0BB400000102020303040405051A
:1005AA00E4F513F512F511F510F51BF51AF519F521
:1005BA0018C203C200C202C2011208B87E017F003B
:1005CA008E238F24752B01752C1275210175221C1F
:1005DA00752901752A4A752D01752E7890E680E0F5
:1005EA0030E70E852125852226852927852A288018
:1005FA000C852925852A26852127852228EE54E07F
:10060A0070030207257514007515807E017F008E20
:10061A00168F17C3749A9FFF74019ECF2402CF349A
:10062A0000FEE48F0F8E0EF50DF50CF50BF50AF5AD
:10063A0009F508AF0FAE0EAD0DAC0CAB0BAA0AA9AB
:10064A0009A808C3120BA3502AE515250BF582E564
:10065A0014350AF58374CDF0E4FAF9F8E50B2401B0
:10066A00F50BEA350AF50AE93509F509E83508F519
:10067A000880C0E4F50BF50AF509F508AF0FAE0ED0
:10068A00AD0DAC0CAB0BAA0AA909A808C3120BA39F
:10069A005037E517250BF582E516350AF583E0FF95
:1006AA00E515250BF582E514350AF583EFF0E4FA32
:1006BA00F9F8E50B2401F50BEA350AF50AE93509DB
:1006CA00F509E83508F50880B385142385152474DF
:1006DA00002480FF740134FFFEC3E52C9FF52CE54E
:1006EA002B9EF52BC3E5269FF526E5259EF525C30A
:1006FA00E5289FF528E5279EF527C3E5229FF522E1
:10070A00E5219EF521C3E52A9FF52AE5299EF529CB
:10071A00C3E52E9FF52EE52D9EF52DD2E843D82070
:10072A0090E668E04409F090E65CE0443DF0D2AF20
:10073A0090E680E020E105D205120AA390E680E067
:10074A0054F7F0538EF8C203300105120300C201B8
:10075A00300329120BCD5024C203120AFE200016C0
:10076A0090E682E030E704E020E1EF90E682E030B4
:10077A00E604E020E0E4120AD2120BCF120BDB806F
:01078A00C7A7
:01078B00224B
:1003000090E6B9E070030203DC1470030204882451
:10031000FE700302052424FB70030203D61470034D
:100320000203D01470030203C41470030203CA242E
:10033000056003020596120BD140030205A290E668
:10034000BBE024FE602C14604724FD60161460316D
:1003500024067066E52390E6B3F0E52490E6B4F059
:100360000205A2E52B90E6B3F0E52C90E6B4F0028E
:1003700005A2E52590E6B3F0E52690E6B4F0020587
:10038000A2E52790E6B3F0E52890E6B4F00205A2D6
:1003900090E6BAE0FF1207D5AA06A9077B01EA4951
:1003A0004B600DEE90E6B3F0EF90E6B4F00205A2DC
:1003B00090E6A0E04401F00205A290E6A0E044012E
:1003C000F00205A2120B910205A2120BBE0205A2B9
:1003D00012078C0205A2120B7F0205A2120BD3405A
:1003E000030205A290E6B8E0247F602B14603C2451
:1003F00002600302047EA200E433FF25E0FFA202B4
:10040000E4334F90E740F0E4A3F090E68AF090E602
:100410008B7402F00205A2E490E740F0A3F090E6AE
:100420008AF090E68B7402F00205A290E6BCE0D35D
:1004300094807480948040067E007F0180047E005A
:100440007F0090E6BCE0547EFDEEEF4D24B4F582D3
:10045000740B3EF583E493FF3395E0FEEF24A1FF98
:10046000EE34E68F82F583E0540190E740F0E4A398
:10047000F090E68AF090E68B7402F00205A290E616
:10048000A0E04401F00205A2120BD540030205A230
:1004900090E6B8E024FE601E240260030205A290EC
:1004A000E6BAE064017005C2000205A290E6A0E091
:1004B0004401F00205A290E6BAE0705C90E6BCE070
:1004C000D394807480948040067E007F0180047EF7
:1004D000007F0090E6BCE0547EFDEEEF4D24B4F5C5
:1004E00082740B3EF583E493FF3395E0FEEF24A185
:1004F000FFEE34E68F82F583E054FEF090E6BCE038
:100500005480FF131313541FFFE0540F2F90E68302
:10051000F0E04420F00205A290E6A0E04401F002E1
:1005200005A2807E120BD7507990E6B8E024FE60D9
:10053000212402706D90E6BAE064017004D200805C
:100540006190E6BAE06402605990E6A0E04401F0F0
:10055000805090E6BCE0D394807480948040067E06
:10056000007F0180047E007F0090E6BCE0547EFDA9
:10057000EEEF4D24B4F582740B3EF583E493FF3324
:1005800095E0FEEF24A1FFEE34E68F82F583E04490
:1005900001F0800E800C120BD9500790E6A0E044C9
:0905A00001F090E6A0E04480F0B7
:0105A900222F
:03003300020BC6F7
:040BC60053D8EF32DF
:100100001201000200000040B404041000000102CB
:1001100000010A06000200000040010009022E0052
:10012000010100A0320904000004FF0000000705DF
:100130000202000200070504020002000705860211
:100140000002000705880200020009022E000101DA
:1001500000A0320904000004FF00000007050202AD
:100160004000000705040240000007058602400029
:10017000000705880240000004030904100343003F
:100180007900700072006500730073000E03450073
:0C0190005A002D005500530042000000F2
:020BCA00C10464
:1008B80090E6007412F090E6027489F0000000904F
:1008C800E60374FEF000000090E670E04480F0005B
:1008D800000090E60174E3F000000090E61074A0B8
:1008E800F090E611F000000090E61274A2F000000B
:1008F8000090E61374A0F000000090E61474E2F093
:1009080000000090E61574E0F000000090E6047422
:1009180080F00000007402F00000007404F0000091
:10092800007406F00000007408F0000000E4F00015
:10093800000090E618F00000007411F0000000902C
:10094800E61A740DF000000090E6197411F000002A
:0B0958000090E61B740DF00000002270
:010BDB0022F7
:020BCD00D32231
:020BCF00D3222F
:020BD100D3222D
:10078C0090E680E030E71E90E6247402F000000052
:10079C0090E626F0000000E490E625F000000090C2
:1007AC00E627F0801CE490E624F000000090E6269A
:1007BC00F000000090E6257440F000000090E62761
:0907CC00F090E6BAE0F51FD3221B
:100B7F0090E740E51FF0E490E68AF090E68B04F0F2
:020B8F00D3226F
:080BBE0090E6BAE0F51ED32217
:100B910090E740E51EF0E490E68AF090E68B04F0E1
:020BA100D3225D
:020BD300D3222B
:020BD500D32229
:020BD700D32227
:020BD900D32225
:100B2300C0E0C083C082D2015391EF90E65D7401AF
:080B3300F0D082D083D0E03243
:100B5300C0E0C083C0825391EF90E65D7404F0D08F
:060B630082D083D0E032D5
:100B6900C0E0C083C0825391EF90E65D7402F0D07B
:060B790082D083D0E032BF
:100A3500C0E0C083C08290E680E030E70E852125C6
:100A4500852226852927852A28800C852925852A1A
:100A5500268521278522285391EF90E65D7410F0B5
:070A6500D082D083D0E03203
:100B3B00C0E0C083C082D2035391EF90E65D74088E
:080B4B00F0D082D083D0E0322B
:100A6C00C0E0C083C08290E680E030E70E8521258F
:100A7C00852226852927852A28800C852925852AE3
:100A8C00268521278522285391EF90E65D7420F06E
:070A9C00D082D083D0E032CC
:010BDC0032E6
:010BDD0032E5
:010BDE0032E4
:010BDF0032E3
:010BE00032E2
:010BE10032E1
:010BE20032E0
:010BE30032DF
:010BE40032DE
:010BE50032DD
:010BE60032DC
:010BE70032DB
:010BE80032DA
:010BE90032D9
:010BEA0032D8
:010BEB0032D7
:010BEC0032D6
:010BED0032D5
:010BEE0032D4
:010BEF0032D3
:010BF00032D2
:010BF10032D1
:010BF20032D0
:010BF30032CF
:010BF40032CE
:010BF50032CD
:010BF60032CC
:010BF70032CB
:010BF80032CA
:010BF90032C9
:010BFA0032C8
:010BFB0032C7
:010BFC0032C6
:010BFD0032C5
:010BFE0032C4
:010BFF0032C3
:100AD20090E682E030E004E020E60B90E682E0302F
:100AE200E119E030E71590E680E04401F07F147EE2
:0C0AF200001209EF90E680E054FEF022B4
:100AA30030050990E680E0440AF0800790E680E094
:100AB3004408F07FDC7E051209EF90E65D74FFF0D9
:0F0AC30090E65FF05391EF90E680E054F7F02259
:0207D500A90772
:1007D700AE2DAF2E8F828E83A3E064037017AD0119
:1007E70019ED7001228F828E83E07C002FFDEC3E95
:0807F700FEAF0580DFE4FEFF08
:0107FF0022D7
:100AFE0090E682E044C0F090E681F043870100006A
:040B0E0000000022C1
:1009EF008E1C8F1D90E600E054187012E51D240137
:1009FF00FFE4351CC313F51CEF13F51D801590E6AE
:100A0F0000E05418FFBF100BE51D25E0F51DE51C98
:100A1F0033F51CE51D151DAE1C7002151C4E60052F
:060A2F00120B1280EE2202
:100B12007400F58690FDA57C05A3E582458370F9F6
:010B220022B0
:03004300020800B0
:03005300020800A0
:10080000020B2300020B6900020B5300020B3B009A
:10081000020A3500020A6C00020BDC00020BDD004C
:10082000020BDE00020BDF00020BE000020BE10016
:10083000020BE200020BE300020BE400020BE500F6
:10084000020BE600020BDD00020BE700020BE800E2
:10085000020BE900020BEA00020BEB00020BEC00BA
:10086000020BED00020BDD00020BDD00020BDD00D0
:10087000020BEE00020BEF00020BF000020BF10086
:10088000020BF200020BF300020BF400020BF50066
:10089000020BF600020BF700020BF800020BF90046
:1008A000020BFA00020BFB00020BFC00020BFD0026
:0808B000020BFE00020BFF0029
:030000000209638F
:0C096300787FE4F6D8FD75812E0209AA09
:100BA300EB9FF5F0EA9E42F0E99D42F0E89C45F0A8
:010BB300221F
:10096F000205AAE493A3F8E493A34003F68001F2EF
:10097F0008DFF48029E493A3F85407240CC8C33389
:10098F00C4540F4420C8834004F456800146F6DF58
:10099F00E4800B0102040810204080900BCAE47E13
:1009AF00019360BCA3FF543F30E509541FFEE4934D
:1009BF00A360010ECF54C025E060A840B8E493A314
:1009CF00FAE493A3F8E493A3C8C582C8CAC583CA3F
:1009DF00F0A3C8C582C8CAC583CADFE9DEE780BEF7
:010BCC000028
:00000001FF
